:100000000C945D000C9485000C9485000C94850084
:100010000C9485000C9485000C9485000C9485004C
:100020000C9485000C9485000C9485000C9485003C
:100030000C9485000C9485000C9485000C9485002C
:100040000C9487030C9485000C9455030C942F0397
:100050000C9485000C9485000C9485000C9485000C
:100060000C9485000C94850000000008000201003B
:100070000003040700000000000000000000000072
:10008000250028002B0000000000240027002A0083
:10009000040404040404040402020202020203032E
:1000A0000303030301020408102040800102040836
:1000B0001020010204081020D10311241FBECFEF2D
:1000C000D8E0DEBFCDBF22E0A8E4B1E001C01D92C0
:1000D000AC36B207E1F711E0A0E0B1E0E4E1F3E112
:1000E00002C005900D92A834B107D9F710E0CDE514
:1000F000D0E004C02197FE010E946707CC35D107EC
:10010000C9F70E944C040C9488090C940000E9E59E
:10011000F1E0A089B18982E08C93A485B5851C9219
:10012000A685B7858FEC8C93108EA489B58986E05F
:100130008C93A289B3898C9180618C93A289B389B5
:100140008C9188608C93A289B3898C9180688C9300
:100150000288F389E02D80818F7D8083089590E06F
:10016000FC01EC55FF4F2491FC01E057FF4F8491B7
:10017000882399F090E0880F991FFC01EA57FF4F00
:10018000A591B491FC01E458FF4F859194918FB7EC
:10019000F894EC91E22BEC938FBF0895CF92DF920D
:1001A000EF92FF920F931F93CF93DF936C017A012D
:1001B0008B01C0E0D0E0CE15DF0589F0D8016D914C
:1001C0008D01D601ED91FC910190F081E02DC601E9
:1001D0000995892B11F47E0102C02196ECCFC7014D
:1001E000DF91CF911F910F91FF90EF90DF90CF9013
:1001F0000895089580E090E00895FC01538D448DAA
:10020000252F30E0842F90E0821B930B541710F0C1
:10021000CF96089501970895FC01918D828D9817CE
:1002200061F0828DDF01A80FB11D5D968C91928DDA
:100230009F5F9F73928F90E008958FEF9FEF0895D7
:10024000FC01918D828D981731F0828DE80FF11DA0
:10025000858D90E008958FEF9FEF0895FC01918DBB
:10026000228D892F90E0805C9F4F821B91098F73B4
:100270009927089589E591E00E942E0121E0892BBC
:1002800009F420E0822F0895FC01848DDF01A80F7E
:10029000B11DA35ABF4F2C91848D90E001968F73AE
:1002A0009927848FA689B7892C93A089B1898C91CD
:1002B00080648C93938D848D981306C00288F38993
:1002C000E02D80818F7D80830895EF92FF920F93C0
:1002D0001F93CF93DF93EC0181E0888F9B8D8C8DF2
:1002E000981305C0E889F989808185FD24C0F62E20
:1002F0000B8D10E00F5F1F4F0F731127E02E8C8DB9
:10030000E8120CC00FB607FCFACFE889F9898081A2
:1003100085FFF5CFCE010E944401F1CF8B8DFE0108
:10032000E80FF11DE35AFF4FF0820B8FEA89FB893A
:100330008081806207C0EE89FF896083E889F9893E
:1003400080818064808381E090E0DF91CF911F9174
:100350000F91FF90EF900895CF93DF93EC01888D7C
:100360008823C9F0EA89FB89808185FD05C0A889B9
:10037000B9898C9186FD0FC00FB607FCF5CF80813F
:1003800085FFF2CFA889B9898C9185FFEDCFCE0189
:100390000E944401E7CFDF91CF91089580E090E083
:1003A000892B29F00E943A0181110C9400000895D4
:1003B00090E0FC01E859FF4F3491FC01EC55FF4FF0
:1003C0002491FC01E057FF4FE491EE2309F43BC078
:1003D000332339F1333091F038F43130A9F0323031
:1003E00001F584B58F7D12C0373091F03830A1F01F
:1003F0003430B9F4809180008F7D03C080918000FB
:100400008F77809380000DC084B58F7784BD09C03D
:100410008091B0008F7703C08091B0008F7D809372
:10042000B000F0E0EE0FFF1FE458FF4FA591B4912C
:100430008FB7F894EC91611103C020952E2301C071
:100440002E2B2C938FBF08952FB7F89460914D01F8
:1004500070914E0180914F01909150012FBF0895EE
:100460000F931F930E9424026093610170936201B5
:100470008093630190936401E0915901F0915A01D6
:100480000284F385E02D89E591E0099597FF1FC06F
:100490000E94240200916101109162012091630188
:1004A00030916401DC01CB01801B910BA20BB30BDB
:1004B00000915D0110915E0120915F01309160011A
:1004C00080179107A207B307B8F28FEF9FEF1F9134
:1004D0000F9108950F931F93CF93DF93EC010E9428
:1004E0002402088119812A813B81DC01CB01801B18
:1004F000910BA20BB30B0C811D812E813F8108173C
:1005000019072A073B0758F4E885F985309709F061
:1005100009950E942402688379838A839B83DF91F3
:10052000CF911F910F9108950E9464090F931F931B
:10053000CF93DF93EC0188819981009729F02A817C
:100540003B812617370788F48B016F5F7F4F0E942E
:100550009A08009761F0998388831B830A832C8112
:100560003D81232B11F4FC01108281E001C080E069
:10057000DF91CF911F910F9108956115710579F069
:10058000FB0101900020E9F73197AF01461B570BA3
:10059000DC01ED91FC910280F381E02D099480E073
:1005A00090E008954F925F926F927F92EF92FF9248
:1005B0000F931F93CF93DF93CDB7DEB7A1970FB6FD
:1005C000F894DEBF0FBECDBF7C01FA01CB0119A2AA
:1005D000223008F42AE08E010F5D1F4F422E512C6D
:1005E000612C712CBF01A30192010E940E07F90139
:1005F000CA01015011096A3014F4605D01C0695CE0
:10060000D8016C93232B242B252B61F7B801C7014C
:100610000E94BD02A1960FB6F894DEBF0FBECDBFFB
:10062000DF91CF911F910F91FF90EF907F906F908E
:100630005F904F9008950F931F93CF93DF93EC013A
:100640000E94BD028C0167E271E0CE010E94BD02F2
:10065000800F911FDF91CF911F910F9108951F92ED
:100660000F920FB60F9211242F933F934F935F93E6
:100670006F937F938F939F93AF93BF93EF93FF936A
:1006800089E591E00E944401FF91EF91BF91AF9104
:100690009F918F917F916F915F914F913F912F919A
:1006A0000F900FBE0F901F9018951F920F920FB6CC
:1006B0000F9211242F938F939F93EF93FF93E091C9
:1006C0006901F0916A018081E0916F01F091700100
:1006D00082FD12C09081809172018F5F8F73209193
:1006E0007301821751F0E0917201F0E0E75AFE4F7A
:1006F000958F8093720101C08081FF91EF919F914E
:100700008F912F910F900FBE0F901F9018951F92F1
:100710000F920FB60F9211242F933F938F939F93B5
:10072000AF93BF9380914D0190914E01A0914F01E5
:10073000B091500130914C0123E0230F2D3720F46C
:100740000196A11DB11D05C026E8230F0296A11D2B
:10075000B11D20934C0180934D0190934E01A093C5
:100760004F01B09350018091480190914901A091AF
:100770004A01B0914B010196A11DB11D8093480122
:1007800090934901A0934A01B0934B01BF91AF915F
:100790009F918F913F912F910F900FBE0F901F90BF
:1007A0001895CF93DF93E9E5F1E01382128288EE8A
:1007B00093E0A0E0B0E084839583A683B7838AE0CA
:1007C00091E09183808385EC90E09587848784EC29
:1007D00090E09787868780EC90E0918B808B81EC0E
:1007E00090E0938B828B82EC90E0958B848B86ECEF
:1007F00090E0978B868B118E128E138E148EE6EFFF
:10080000F1E01682178210861186128613861486EE
:10081000158616861786108A118A128A138A148AF8
:10082000158ACCE5D2E01C821D821E821F821986A9
:1008300018860E942402688379838A839B83C2E599
:10084000D2E01C821D821E821F82198618860E9499
:100850002402688379838A839B83C8E4D2E01C8264
:100860001D821E821F82198618860E9424026883B8
:1008700079838A839B83CEE3D2E01C821D821E8211
:100880001F82198618860E942402688379838A83CE
:100890009B83DF91CF910895CF93DF93CDB7DEB7E0
:1008A00028970FB6F894DEBF0FBECDBF789484B5FD
:1008B000826084BD84B5816084BD85B5826085BD5C
:1008C00085B5816085BD80916E00816080936E00EA
:1008D00010928100809181008260809381008091DC
:1008E000810081608093810080918000816080938D
:1008F00080008091B10084608093B1008091B0004D
:1009000081608093B00080917A00846080937A0047
:1009100080917A00826080937A0080917A00816071
:1009200080937A0080917A00806880937A00109298
:10093000C10010923A0210923B0210923C021092B7
:100940003D021092F8011092F9011092FA011092F2
:10095000FB010E9424026B017C014B015C0188EBCE
:10096000880E8BE0981EA11CB11C0E9424026C15FD
:100970007D058E059F0528F086169706A806B90600
:10098000A0F789E591E090933902809338020E94A4
:1009900087000E9424026093F8017093F90180930C
:1009A000FA019093FB0168E171E080913802909127
:1009B00039020E94BD020E9424026B017C014B019E
:1009C0005C01EAE08E0E911CA11CB11C0E94240265
:1009D0006C157D058E059F0528F086169706A806DE
:1009E000B906A0F781E080930C0282E00E94AF007C
:1009F00083E00E94AF0084E00E94AF0085E00E9487
:100A0000AF0016E0812F0E94AF001F5F1D30D1F7AD
:100A10000E94870016E061E0812F0E94D8011F5FCD
:100A20001D30C9F784EF882E99249394A12CB12C02
:100A30000E942402672B682B692B41F40E94240238
:100A4000623071058105910508F411C10E942402EC
:100A5000609355017093560180935701909358010C
:100A60000091510110915201209153013091540194
:100A7000601771078207930740F4609351017093E8
:100A800052018093530190935401009151011091B0
:100A9000520120915301309154016B017C01C01A25
:100AA000D10AE20AF30A970186010A3F11052105DE
:100AB000310508F4DCC060935101709352018093BA
:100AC0005301909354018092040290920502A092E7
:100AD0000602B092070210920802109209021092C8
:100AE0000A0210920B028091FC019091FD01A091ED
:100AF000FE01B091FF018093000290930102A09348
:100B00000202B09303020E9424026093FC017093DE
:100B1000FD018093FE019093FF010E9424026093E7
:100B2000F8017093F9018093FA019093FB010E9400
:100B300024026B017C016AE271E08091380290919D
:100B400039020E94BD022AE041E050E060E070E01E
:100B500080913802909139020E94D20261E371E0E3
:100B600080913802909139020E94BD022AE0B701BB
:100B7000A60180913802909139020E94D20263E36B
:100B800071E080913802909139020E94BD028091FB
:100B9000FC019091FD01A091FE01B091FF01B70110
:100BA000A601481B590B6A0B7B0B2AE08091380287
:100BB000909139020E94D20263E371E08091380281
:100BC000909139020E94BD024091FC015091FD01BB
:100BD0006091FE017091FF018091000290910102ED
:100BE000A0910202B0910302481B590B6A0B7B0BC8
:100BF0002AE080913802909139020E94D20265E386
:100C000071E080913802909139020E94BD020E94E9
:100C10002402AB01BC012AE0809138029091390294
:100C20000E94D20267E371E080913802909139020C
:100C30000E941B030E9424026B017C012B013C01DA
:100C400085E0480E511C611C711C0E9424026C1529
:100C50007D058E059F0508F0AEC00E9424026093BA
:100C6000FC017093FD018093FE019093FF0189E5E3
:100C700091E00E942E01892B99F48CE592E00E946C
:100C80006A0282E592E00E946A0288E492E00E9491
:100C90006A028EE392E00E946A020E94CE01C8CEF0
:100CA00086E490E00E946D077C011A8219821C8202
:100CB0001B821E821D8260E070E0CE0101960E94C0
:100CC000960229813A8181110DC02115310519F053
:100CD000C9010E9402081A8219821E821D821C828A
:100CE0001B8225C01E821D8269E271E0C9010E943B
:100CF00072091DC08A309105F1F08F8318860D812D
:100D00001E810F5F1F4FB801CE0101960E9496020F
:100D1000882369F029813A818D819E81BE01695FB6
:100D20007F4F820F931F0E9472091E830D830E94C2
:100D3000300297FFDFCFE114F104B1F00D811E8185
:100D40000115110511F4F7010EC00534110510F05D
:100D500005E410E069817A81A801C7010E94790940
:100D6000F701E00FF11F108289819A810E94020829
:100D7000B70189E591E00E941B0366E471E0C701B9
:100D80000E94E206009709F478CFBC0180E090E071
:100D90000E9472096EE371E089E591E00E94BD0254
:100DA00060E070E089E591E00E941B0366E471E079
:100DB00080E090E0E5CF461657066806790608F011
:100DC00044CF4BCF46E652E00E94E7060895FA0171
:100DD000A191B081009719F41097E1F0CD01DC01E9
:100DE000CD010D90002011F4C00113C0FB01219131
:100DF000222319F02015D9F7F3CFFB0121912015FB
:100E000019F41E92119606C02223C1F70D900020FE
:100E1000A1F7D001FA01A193B0830895A1E21A2E9F
:100E2000AA1BBB1BFD010DC0AA1FBB1FEE1FFF1F8E
:100E3000A217B307E407F50720F0A21BB30BE40BDE
:100E4000F50B661F771F881F991F1A9469F7609525
:100E50007095809590959B01AC01BD01CF010895DF
:100E60002F923F924F925F926F927F928F929F92BA
:100E7000AF92BF92CF92DF92EF92FF920F931F93A8
:100E8000CF93DF93CDB7DEB7CA1BDB0B0FB6F89459
:100E9000DEBF0FBECDBF09942A88398848885F8499
:100EA0006E847D848C849B84AA84B984C884DF800A
:100EB000EE80FD800C811B81AA81B981CE0FD11DEE
:100EC0000FB6F894DEBF0FBECDBFED010895EE0F53
:100ED000FF1F0590F491E02D0994CF93DF938230AA
:100EE000910510F482E090E0E0916A02F0916B02CB
:100EF00020E030E0C0E0D0E0309711F14081518136
:100F000048175907C0F04817590761F48281938147
:100F1000209719F09B838A832BC090936B02809358
:100F20006A0226C02115310519F04217530718F43B
:100F30009A01BE01DF01EF010280F381E02DDCCFD9
:100F40002115310509F1281B390B2430310590F4A6
:100F500012968D919C9113976115710521F0FB01FB
:100F60009383828304C090936B0280936A02FD0195
:100F7000329644C0FD01E20FF31F819391932250FA
:100F800031092D933C933AC0209168023091690257
:100F9000232B41F420910201309103013093690227
:100FA0002093680220910001309101012115310543
:100FB00041F42DB73EB74091040150910501241B27
:100FC000350BE0916802F0916902E217F307A0F493
:100FD0002E1B3F0B2817390778F0AC014E5F5F4F8F
:100FE0002417350748F04E0F5F1F50936902409356
:100FF00068028193919302C0E0E0F0E0CF01DF91BD
:10100000CF9108950F931F93CF93DF93009709F427
:101010008CC0FC0132971382128200916A021091F7
:101020006B020115110581F420813181820F931F1C
:1010300020916802309169022817390779F5F093F9
:101040006902E093680271C0D80140E050E0AE1739
:10105000BF0750F412962D913C911397AD012115C5
:10106000310509F1D901F3CF9D01DA0133832283E0
:1010700060817181860F971F8217930769F4EC01D5
:1010800028813981260F371F2E5F3F4F3183208300
:101090008A819B8193838283452B29F4F0936B0291
:1010A000E0936A0242C01396FC93EE931297ED010F
:1010B000499159919E01240F351FE217F30771F4EE
:1010C00080819181840F951F029611969C938E9337
:1010D0008281938113969C938E931297E0E0F0E0C7
:1010E000D80112968D919C911397009719F0F801F1
:1010F0008C01F6CF8D919C9198012E5F3F4F820F0E
:10110000931F20916802309169022817390769F40A
:10111000309729F410926B0210926A0202C0138277
:1011200012821093690200936802DF91CF911F91A0
:101130000F910895A0E0B0E0E0EAF8E00C943407E5
:10114000EC01009721F4CB010E946D07B8C0FC01AF
:10115000E60FF71F9C0122503109E217F30708F44C
:10116000ACC0D9010D911C91119706171707B0F06B
:101170000530110508F49FC0C8010497861797072A
:1011800008F499C002501109061B170B0193119323
:101190006D937C93CF010E9402088DC05B01A01A61
:1011A000B10A4C01800E911EA0916A02B0916B02AF
:1011B00040E050E0E12CF12C109709F44AC0A8154A
:1011C000B905D1F56D907C901197630182E0C80E4E
:1011D000D11CCA14DB0480F1A3014A195B096A011E
:1011E00082E0C80ED11C1296BC9012971396AC9157
:1011F000B5E0CB16D10440F0B282A3835183408383
:10120000D9016D937C930AC00E5F1F4FC301800FFD
:10121000911FF90191838083EB2DFA2FE114F104E2
:1012200031F0D7011396FC93EE93129744C0F093DC
:101230006B02E0936A023FC08D919C911197481711
:10124000590708F4AC017D0112960D90BC91A02DB8
:10125000B3CF809168029091690288159905E1F4F5
:1012600046175707C8F4809100019091010100973B
:1012700041F48DB79EB74091040150910501841B44
:10128000950BE817F907C8F4F0936902E093680238
:10129000F901718360830FC0CB010E946D077C014F
:1012A000009759F0A801BE010E946909CE010E9471
:1012B0000208C70104C0CE0102C080E090E0CDB7B3
:1012C000DEB7EEE00C94500781E090E0F8940C94C7
:1012D0008809FB01DC0102C001900D924150504091
:1012E000D8F70895FB01DC0101900D920020E1F791
:1012F0000895FB01DC014150504048F001900D92EF
:101300000020C9F701C01D9241505040E0F70895F8
:04131000F894FFCF7F
:1013140000006C028000000000006501CE00FD00AA
:10132400AC012E010C012001564D4450565F317C16
:10133400315F564D4450560D0A00564D4450455F9A
:10134400003A323A007C005F564D44504500436FEA
:081354006D6D616E643A20002A
:107E0000112484B714BE81FFF0D085E080938100F7
:107E100082E08093C00088E18093C10086E0809377
:107E2000C20080E18093C4008EE0C9D0259A86E02C
:107E300020E33CEF91E0309385002093840096BBD3
:107E4000B09BFECF1D9AA8958150A9F7CC24DD24C4
:107E500088248394B5E0AB2EA1E19A2EF3E0BF2EE7
:107E6000A2D0813461F49FD0082FAFD0023811F036
:107E7000013811F484E001C083E08DD089C08234E0
:107E800011F484E103C0853419F485E0A6D080C0E4
:107E9000853579F488D0E82EFF2485D0082F10E0AE
:107EA000102F00270E291F29000F111F8ED06801E7
:107EB0006FC0863521F484E090D080E0DECF843638
:107EC00009F040C070D06FD0082F6DD080E0C81688
:107ED00080E7D80618F4F601B7BEE895C0E0D1E017
:107EE00062D089930C17E1F7F0E0CF16F0E7DF06D8
:107EF00018F0F601B7BEE89568D007B600FCFDCFD4
:107F0000A601A0E0B1E02C9130E011968C91119780
:107F100090E0982F8827822B932B1296FA010C0160
:107F200087BEE89511244E5F5F4FF1E0A038BF0790
:107F300051F7F601A7BEE89507B600FCFDCF97BE46
:107F4000E89526C08437B1F42ED02DD0F82E2BD052
:107F50003CD0F601EF2C8F010F5F1F4F84911BD097
:107F6000EA94F801C1F70894C11CD11CFA94CF0C13
:107F7000D11C0EC0853739F428D08EE10CD085E9AC
:107F80000AD08FE07ACF813511F488E018D01DD067
:107F900080E101D065CF982F8091C00085FFFCCF94
:107FA0009093C60008958091C00087FFFCCF809118
:107FB000C00084FD01C0A8958091C6000895E0E648
:107FC000F0E098E1908380830895EDDF803219F02E
:107FD00088E0F5DFFFCF84E1DECF1F93182FE3DFCA
:107FE0001150E9F7F2DF1F91089580E0E8DFEE27F6
:047FF000FF270994CA
:027FFE00040479
:0400000300007E007B
:00000001FF