:100000000C9462000C948A000C948A000C948A0070
:100010000C948A000C948A000C948A000C948A0038
:100020000C948A000C948A000C948A000C948A0028
:100030000C948A000C948A000C948A000C948A0018
:100040000C9450030C948A000C941E030C94F80238
:100050000C948A000C948A000C948A000C948A00F8
:100060000C948A000C948A000000000023002600F3
:10007000290000000008000201000003040700003E
:1000800000000000000000000000250028002B00F8
:1000900000000000240027002A00040404040404D3
:1000A0000404020202020202030303030303010227
:1000B00004081020408001020408102001020408F6
:1000C00010209A0311241FBECFEFD8E0DEBFCDBFB2
:1000D00022E0AEEBB1E001C01D92A239B207E1F718
:1000E00011E0A0E0B1E0E6EDF2E102C005900D9272
:1000F000AE3BB107D9F710E0C2E6D0E004C02197CB
:10010000FE010E943F07C136D107C9F70E940304D0
:100110000C9469090C94000090E0FC01E255FF4F3B
:100120002491FC01E656FF4F8491882399F090E0DA
:10013000880F991FFC01E057FF4FA591B491FC0176
:10014000EA57FF4F859194918FB7F894EC91E22B89
:10015000EC938FBF0895CF92DF92EF92FF920F93AF
:100160001F93CF93DF936C017A018B01C0E0D0E045
:10017000CE15DF0589F0D8016D918D01D601ED9185
:10018000FC910190F081E02DC6010995892B11F4B5
:100190007E0102C02196ECCFC701DF91CF911F9164
:1001A0000F91FF90EF90DF90CF900895089580E039
:1001B00090E00895FC01538D448D252F30E0842F6D
:1001C00090E0821B930B541710F0CF96089501977F
:1001D0000895FC01918D828D981761F0828DDF0169
:1001E000A80FB11D5D968C91928D9F5F9F73928F2A
:1001F00090E008958FEF9FEF0895FC01918D828D1F
:10020000981731F0828DE80FF11D858D90E00895EB
:100210008FEF9FEF0895FC01918D228D892F90E043
:10022000805C9F4F821B91098F739927089587ECFB
:1002300091E00E940B0121E0892B09F420E0822F3C
:100240000895FC01848DDF01A80FB11DA35ABF4F93
:100250002C91848D90E001968F739927848FA689C5
:10026000B7892C93A089B1898C9180648C93938DEC
:10027000848D981306C00288F389E02D80818F7DDC
:1002800080830895EF92FF920F931F93CF93DF9394
:10029000EC0181E0888F9B8D8C8D981305C0E889D7
:1002A000F989808185FD24C0F62E0B8D10E00F5F4B
:1002B0001F4F0F731127E02E8C8DE8120CC00FB664
:1002C00007FCFACFE889F989808185FFF5CFCE0157
:1002D0000E942101F1CF8B8DFE01E80FF11DE35A41
:1002E000FF4FF0820B8FEA89FB898081806207C013
:1002F000EE89FF896083E889F98980818064808341
:1003000081E090E0DF91CF911F910F91FF90EF90EE
:100310000895CF93DF93EC01888D8823C9F0EA8993
:10032000FB89808185FD05C0A889B9898C9186FDEE
:100330000FC00FB607FCF5CF808185FFF2CFA889EB
:10034000B9898C9185FFEDCFCE010E942101E7CFC5
:10035000DF91CF91089580E090E0892B29F00E94F1
:10036000170181110C9400000895833081F028F466
:10037000813099F08230A1F008958730A9F088305B
:10038000B9F08430D1F4809180008F7D03C08091DA
:1003900080008F7780938000089584B58F7702C0A6
:1003A00084B58F7D84BD08958091B0008F7703C0A0
:1003B0008091B0008F7D8093B0000895CF93DF933C
:1003C000282F30E0F901EE58FF4F8491F901E255F2
:1003D000FF4FD491F901E656FF4FC491CC2391F021
:1003E00081110E94B501EC2FF0E0EE0FFF1FE859DC
:1003F000FF4FA591B491EC91ED2381E090E021F4C1
:1004000080E002C080E090E0DF91CF9108951F93DB
:10041000CF93DF93282F30E0F901EE58FF4F8491FE
:10042000F901E255FF4FD491F901E656FF4FC4910F
:10043000CC23C9F0162F81110E94B501EC2FF0E0FA
:10044000EE0FFF1FEA57FF4FA591B4918FB7F894B5
:10045000111105C09C91ED2FE095E92302C0EC91AC
:10046000ED2BEC938FBFDF91CF911F91089582E028
:100470000E94DE0161E0892B09F060E082E00C94CB
:10048000070283E00E94DE0161E0892B09F060E051
:1004900083E00C94070284E00E94DE0161E0892B76
:1004A00009F060E084E00C94070285E00E94DE0120
:1004B00061E0892B09F060E085E00C9407022FB71A
:1004C000F8946091C3017091C4018091C50190912D
:1004D000C6012FBF08950F931F930E945F02609380
:1004E000CF017093D0018093D1019093D201E0911C
:1004F000C701F091C8010284F385E02D87EC91E0FB
:10050000099597FF1FC00E945F020091CF011091D3
:10051000D0012091D1013091D201DC01CB01801BAF
:10052000910BA20BB30B0091CB011091CC01209148
:10053000CD013091CE0180179107A207B307B8F221
:100540008FEF9FEF1F910F9108950F931F93CF93FC
:10055000DF93EC010E945F02088119812A813B81AF
:10056000DC01CB01801B910BA20BB30B0C811D8115
:100570002E813F81081719072A073B0758F4E885A1
:10058000F985309709F009950E945F0268837983A5
:100590008A839B83DF91CF911F910F9108950E94D1
:1005A0003C090F931F93CF93DF93EC0188819981CE
:1005B000009729F02A813B812617370788F48B01A1
:1005C0006F5F7F4F0E947208009761F09983888364
:1005D0001B830A832C813D81232B11F4FC011082A3
:1005E00081E001C080E0DF91CF911F910F910895CC
:1005F0001F920F920FB60F9211242F933F934F9398
:100600005F936F937F938F939F93AF93BF93EF937A
:10061000FF9387EC91E00E942101FF91EF91BF9140
:10062000AF919F918F917F916F915F914F913F918A
:100630002F910F900FBE0F901F9018951F920F9241
:100640000FB60F9211242F938F939F93EF93FF93E5
:10065000E091D701F091D8018081E091DD01F09126
:10066000DE0182FD12C090818091E0018F5F8F7367
:100670002091E101821751F0E091E001F0E0E953AF
:10068000FE4F958F8093E00101C08081FF91EF9133
:100690009F918F912F910F900FBE0F901F901895E3
:1006A0001F920F920FB60F9211242F933F938F93A7
:1006B0009F93AF93BF938091C3019091C401A09188
:1006C000C501B091C6013091C20123E0230F2D373F
:1006D00020F40196A11DB11D05C026E8230F029646
:1006E000A11DB11D2093C2018093C3019093C40149
:1006F000A093C501B093C6018091BE019091BF0146
:10070000A091C001B091C1010196A11DB11D8093BE
:10071000BE019093BF01A093C001B093C101BF91EE
:10072000AF919F918F913F912F910F900FBE0F909E
:100730001F901895CF93DF93E7ECF1E013821282BC
:1007400088EE93E0A0E0B0E084839583A683B7832E
:1007500086E991E09183808385EC90E0958784879A
:1007600084EC90E09787868780EC90E0918B808B7B
:1007700081EC90E0938B828B82EC90E0958B848B64
:1007800086EC90E0978B868B118E128E138E148ED2
:10079000C2E8D2E01C821D821E821F821986188642
:1007A0000E945F02688379838A839B83C8E7D2E0D3
:1007B0001C821D821E821F82198618860E945F027B
:1007C000688379838A839B83CEE6D2E01C821D8274
:1007D0001E821F82198618860E945F0268837983B1
:1007E0008A839B83C4E6D2E01C821D821E821F8204
:1007F000198618860E945F02688379838A839B83A7
:10080000DF91CF910895CF93DF93CDB7DEB72897CF
:100810000FB6F894DEBF0FBECDBF789484B582606A
:1008200084BD84B5816084BD85B5826085BD85B594
:10083000816085BD80916E00816080936E00109212
:10084000810080918100826080938100809181008D
:10085000816080938100809180008160809380001E
:100860008091B10084608093B1008091B00081607C
:100870008093B00080917A00846080937A008091A8
:100880007A00826080937A0080917A008160809300
:100890007A0080917A00806880937A001092C1007B
:1008A00082E00E948C0083E00E948C0084E00E9421
:1008B0008C0085E00E948C0016E0812F0E948C0045
:1008C0001F5F1D30D1F7E091D701F091D80182E090
:1008D0008083E091D301F091D4011082E091D501A1
:1008E000F091D6018FEC80831092DF01E091DB0163
:1008F000F091DC0186E08083E091D901F091DA018A
:10090000808180618083E091D901F091DA0180815A
:1009100088608083E091D901F091DA01808180685C
:100920008083E091D901F091DA0180818F7D80830D
:1009300016E061E0812F0E9407021F5F1D30C9F79A
:1009400098EE892E93E0992E21E4222E22E0322E79
:1009500037E3632E32E0732E87EC91E00E940B01A7
:10096000892B09F4BEC186E490E00E9445076C0122
:100970001A8219821C821B821E821D8260E070E036
:10098000CE0101960E94D10229813A8181110DC0C8
:100990002115310519F0C9010E94DA071A8219825E
:1009A0001E821D821C821B8225C01E821D826CEB52
:1009B00071E0C9010E9453091DC08A309105F1F010
:1009C0008F8318860D811E810F5F1F4FB801CE01E6
:1009D00001960E94D102882369F029813A818D8194
:1009E0009E81BE01695F7F4F820F931F0E94530952
:1009F0001E830D830E946B0297FFDFCFC114D104C9
:100A0000B1F00D811E810115110511F4F6010EC022
:100A10000534110510F005E410E069817A81A80120
:100A2000C6010E945A09F601E00FF11F1082898168
:100A30009A810E94DA0768EA71E0C6010E94A20664
:100A40008C01E12CF12CA12CB12C0115110509F41C
:100A500049C0A114B10439F486E490E00E9445072E
:100A60005C01B8014AC0C5010E94A7066AEA71E0AC
:100A70000E944A09892B69F5C8010E9484068A30C0
:100A8000910548F016E061E0812F0E9407021F5F88
:100A90001D30C9F7EBC02EE0289F8001299F100D63
:100AA0001124412C512CF201EE0FFF1FE00FF11F1A
:100AB000EA5FFE4F6081F1E06F2786E0840D0E94BF
:100AC00007028FEF481A580A97E04916510459F760
:100AD000CDC0C5010E94A7066EEA71E00E944A09D6
:100AE000892B11F010E0DBC0E114F10481F486E4FD
:100AF00090E00E9445077C01B8010E94530968EA12
:100B000071E080E090E00E94A2068C019ECFC701B8
:100B10000E94A70662EB71E00E944A09892B39F511
:100B2000C8010E9484069C010197099758F0109211
:100B30008B0210928A0261E02A3031050CF460E0E9
:100B400082E092C070928B0260928A02C401B90165
:100B50000E941707CB01770FAA0BBB0B809386026D
:100B600090938702A0938802B09389027FC0C70147
:100B70000E94A70664EB71E00E944A09892B39F5AF
:100B8000C8010E9484069C010197099758F01092B1
:100B900081021092800261E02A3031050CF460E09D
:100BA00083E062C03092810220928002C401B901C8
:100BB0000E941707CB01770FAA0BBB0B80937C0217
:100BC00090937D02A0937E02B0937F024FC0C70135
:100BD0000E94A70666EB71E00E944A09892B49F53D
:100BE000C8010E9484069C010197099758F0109251
:100BF00077021092760261E02A3031050CF460E051
:100C000084E032C0EBE4F2E0F0937702E093760206
:100C1000C401B9010E941707CB01770FAA0BBB0BC8
:100C20008093720290937302A0937402B093750242
:100C30001DC0C7010E94A70668EB71E00E944A0927
:100C4000892B09F04FCFC8010E9484069C010197AF
:100C5000099770F010926D0210926C0261E02A30D8
:100C600031050CF460E085E00E94070211E017C036
:100C700085E592E090936D0280936C02C401B90106
:100C80000E941707CB01770FAA0BBB0B809368025A
:100C900090936902A0936A02B0936B02E7CFC501FB
:100CA0000E94DA07C7010E94DA07C6010E94DA072C
:100CB000111103C066EA71E002C064EA71E041E02C
:100CC00050E087EC91E00E94AB0042E050E06AEB1C
:100CD00071E087EC91E00E94AB0087EC91E00E940C
:100CE000890182E892E00E94A50288E792E00E94D2
:100CF000A5028EE692E00E94A50284E692E00E94A0
:100D0000A5020E94AB0128CEFC0188279927E89410
:100D100021912032E9F3293010F02E30C8F32B3224
:100D200041F02D3239F4689404C00E94D806820F35
:100D3000911D219120532A30C0F31EF49095819586
:100D40009F4F08954CE852E00E94B1060895DC01DF
:100D50006C9161546A3108F060526F596D93C1F71C
:100D60000895FA01A191B081009719F41097E1F06C
:100D7000CD01DC01CD010D90002011F4C00113C0A4
:100D8000FB012191222319F02015D9F7F3CFFB01A4
:100D90002191201519F41E92119606C02223C1F745
:100DA0000D900020A1F7D001FA01A193B08308951E
:100DB0007AE0979F902D879F802D910D11240895A3
:100DC0002F923F924F925F926F927F928F929F925B
:100DD000AF92BF92CF92DF92EF92FF920F931F9349
:100DE000CF93DF93CDB7DEB7CA1BDB0B0FB6F894FA
:100DF000DEBF0FBECDBF09942A88398848885F843A
:100E00006E847D848C849B84AA84B984C884DF80AA
:100E1000EE80FD800C811B81AA81B981CE0FD11D8E
:100E20000FB6F894DEBF0FBECDBFED01089597FB5E
:100E3000072E16F4009407D077FD09D00E942B07E7
:100E400007FC05D03EF4909581959F4F08957095CD
:100E500061957F4F0895AA1BBB1B51E107C0AA1FD4
:100E6000BB1FA617B70710F0A61BB70B881F991F4B
:100E70005A95A9F780959095BC01CD010895EE0F84
:100E8000FF1F0590F491E02D0994CF93DF938230FA
:100E9000910510F482E090E0E0919002F0919102CF
:100EA00020E030E0C0E0D0E0309711F14081518186
:100EB00048175907C0F04817590761F48281938198
:100EC000209719F09B838A832BC090939102809383
:100ED000900226C02115310519F04217530718F466
:100EE0009A01BE01DF01EF010280F381E02DDCCF2A
:100EF0002115310509F1281B390B2430310590F4F7
:100F000012968D919C9113976115710521F0FB014B
:100F10009383828304C09093910280939002FD0199
:100F2000329644C0FD01E20FF31F8193919322504A
:100F300031092D933C933AC020918E0230918F025B
:100F4000232B41F4209102013091030130938F0251
:100F500020938E022091000130910101211531056D
:100F600041F42DB73EB74091040150910501241B77
:100F7000350BE0918E02F0918F02E217F307A0F497
:100F80002E1B3F0B2817390778F0AC014E5F5F4FDF
:100F90002417350748F04E0F5F1F50938F02409380
:100FA0008E028193919302C0E0E0F0E0CF01DF91E7
:100FB000CF9108950F931F93CF93DF93009709F478
:100FC0008CC0FC0132971382128200919002109122
:100FD00091020115110581F420813181820F931F47
:100FE00020918E0230918F022817390779F5F093FE
:100FF0008F02E0938E0271C0D80140E050E0AE173E
:10100000BF0750F412962D913C911397AD01211515
:10101000310509F1D901F3CF9D01DA013383228330
:1010200060817181860F971F8217930769F4EC0125
:1010300028813981260F371F2E5F3F4F3183208350
:101040008A819B8193838283452B29F4F0939102BB
:10105000E093900242C01396FC93EE931297ED0139
:10106000499159919E01240F351FE217F30771F43E
:1010700080819181840F951F029611969C938E9387
:101080008281938113969C938E931297E0E0F0E017
:10109000D80112968D919C911397009719F0F80141
:1010A0008C01F6CF8D919C9198012E5F3F4F820F5E
:1010B000931F20918E0230918F022817390769F40F
:1010C000309729F4109291021092900202C013827C
:1010D000128210938F0200938E02DF91CF911F91A5
:1010E0000F910895A0E0B0E0E8E7F8E00C94E40682
:1010F000EC01009721F4CB010E944507B8C0FC0128
:10110000E60FF71F9C0122503109E217F30708F49C
:10111000ACC0D9010D911C91119706171707B0F0BB
:101120000530110508F49FC0C8010497861797077A
:1011300008F499C002501109061B170B0193119373
:101140006D937C93CF010E94DA078DC05B01A01ADA
:10115000B10A4C01800E911EA0919002B0919102B3
:1011600040E050E0E12CF12C109709F44AC0A8159A
:10117000B905D1F56D907C901197630182E0C80E9E
:10118000D11CCA14DB0480F1A3014A195B096A016E
:1011900082E0C80ED11C1296BC9012971396AC91A7
:1011A000B5E0CB16D10440F0B282A38351834083D3
:1011B000D9016D937C930AC00E5F1F4FC301800F4E
:1011C000911FF90191838083EB2DFA2FE114F10433
:1011D00031F0D7011396FC93EE93129744C0F0932D
:1011E0009102E09390023FC08D919C911197481716
:1011F000590708F4AC017D0112960D90BC91A02D09
:10120000B3CF80918E0290918F0288159905E1F4F9
:1012100046175707C8F4809100019091010100978B
:1012200041F48DB79EB74091040150910501841B94
:10123000950BE817F907C8F4F0938F02E0938E023C
:10124000F901718360830FC0CB010E9445077C01C7
:10125000009759F0A801BE010E944109CE010E94E9
:10126000DA07C70104C0CE0102C080E090E0CDB72C
:10127000DEB7EEE00C94000781E090E0F8940C9467
:101280006909FB01DC0102C001900D924150504000
:10129000D8F70895FB01DC018D91019080190110B0
:1012A000D9F3990B0895FB01DC0101900D92002008
:1012B000E1F70895FB01DC014150504048F00190F6
:1012C0000D920020C9F701C01D9241505040E0F737
:0612D0000895F894FFCF21
:1012D60000009202800001000100010001000100EF
:1012E60001000000000001000100000000000000F5
:1012F60000000100010000000100010000000100E3
:1013060001000100010001000000000001000000D2
:1013160001000100000000000100010001000000C2
:1013260001000100000001000100010000000100B1
:1013360001000100010001000100010001000000A0
:101346000000000000000100010001000100010092
:101356000100010001000100010000000000010081
:101366000100000000004201AB00DA0089010B0118
:10137600E900FD003100300020006E756D006C65DF
:0E138600640072007900670077000D0A000015
:107E0000112484B714BE81FFF0D085E080938100F7
:107E100082E08093C00088E18093C10086E0809377
:107E2000C20080E18093C4008EE0C9D0259A86E02C
:107E300020E33CEF91E0309385002093840096BBD3
:107E4000B09BFECF1D9AA8958150A9F7CC24DD24C4
:107E500088248394B5E0AB2EA1E19A2EF3E0BF2EE7
:107E6000A2D0813461F49FD0082FAFD0023811F036
:107E7000013811F484E001C083E08DD089C08234E0
:107E800011F484E103C0853419F485E0A6D080C0E4
:107E9000853579F488D0E82EFF2485D0082F10E0AE
:107EA000102F00270E291F29000F111F8ED06801E7
:107EB0006FC0863521F484E090D080E0DECF843638
:107EC00009F040C070D06FD0082F6DD080E0C81688
:107ED00080E7D80618F4F601B7BEE895C0E0D1E017
:107EE00062D089930C17E1F7F0E0CF16F0E7DF06D8
:107EF00018F0F601B7BEE89568D007B600FCFDCFD4
:107F0000A601A0E0B1E02C9130E011968C91119780
:107F100090E0982F8827822B932B1296FA010C0160
:107F200087BEE89511244E5F5F4FF1E0A038BF0790
:107F300051F7F601A7BEE89507B600FCFDCF97BE46
:107F4000E89526C08437B1F42ED02DD0F82E2BD052
:107F50003CD0F601EF2C8F010F5F1F4F84911BD097
:107F6000EA94F801C1F70894C11CD11CFA94CF0C13
:107F7000D11C0EC0853739F428D08EE10CD085E9AC
:107F80000AD08FE07ACF813511F488E018D01DD067
:107F900080E101D065CF982F8091C00085FFFCCF94
:107FA0009093C60008958091C00087FFFCCF809118
:107FB000C00084FD01C0A8958091C6000895E0E648
:107FC000F0E098E1908380830895EDDF803219F02E
:107FD00088E0F5DFFFCF84E1DECF1F93182FE3DFCA
:107FE0001150E9F7F2DF1F91089580E0E8DFEE27F6
:047FF000FF270994CA
:027FFE00040479
:0400000300007E007B
:00000001FF